:020000040800F2
:1000000000200020C11B0008111C0008111C000862
:1000100000000000000000000000000000000000E0
:10002000000000000000000000000000111C00089B
:100030000000000000000000111C0008251B000843
:10004000111C000800000000111C0008111C000811
:10005000111C0008111C0008111C0008111C0008CC
:1000600000000000111C0008111C0008111C0008F1
:10007000111C0008111C0008111C000800000000E1
:10008000111C0008111C000800000000111C0008D1
:10009000111C0008111C0008111C0008111C00088C
:1000A000111C0008111C0008111C0008111C00087C
:1000B000111C00080000000000000000000000000B
:1000C00010B5064C2378002B07D1054B002B02D02E
:1000D000044800E000BF0123237010BD040000208D
:1000E000000000005C1C0008044B10B5002B03D07E
:1000F0000349044800E000BF10BDC04600000000F6
:10010000080000205C1C0008002243088B4274D3C6
:1001100003098B425FD3030A8B4244D3030B8B4208
:1001200028D3030C8B420DD3FF22090212BA030C11
:100130008B4202D31212090265D0030B8B4219D3F2
:1001400000E0090AC30B8B4201D3CB03C01A524112
:10015000830B8B4201D38B03C01A5241430B8B425A
:1001600001D34B03C01A5241030B8B4201D30B0343
:10017000C01A5241C30A8B4201D3CB02C01A52416A
:10018000830A8B4201D38B02C01A5241430A8B422D
:1001900001D34B02C01A5241030A8B4201D30B0216
:1001A000C01A5241CDD2C3098B4201D3CB01C01A30
:1001B000524183098B4201D38B01C01A524143093A
:1001C0008B4201D34B01C01A524103098B4201D328
:1001D0000B01C01A5241C3088B4201D3CB00C01A95
:1001E000524183088B4201D38B00C01A524143080D
:1001F0008B4201D34B00C01A5241411A00D2014632
:10020000524110467047FFE701B5002000F006F8A4
:1002100002BDC0460029F7D076E770477047C04658
:1002200080B500AF074B074A126810210A431A60D5
:10023000002000F009F801F001FC00231800BD4681
:1002400080BDC0460020024080B582B000AF78601B
:1002500000F020FF0200FA2399001000FFF754FF7E
:100260000300180000F0E8F8796801235B420022DF
:10027000180000F0CBF800231800BD4602B080BD86
:1002800080B500AF034B1B685A1C024B1A60C04676
:10029000BD4680BD2000002080B500AF024B1B682A
:1002A0001800BD4680BDC0462000002080B584B047
:1002B00000AF7860FFF7F0FF0300BB607B68FB6076
:1002C000FB68013302D0FB680133FB60C046FFF7D7
:1002D000E3FF0200BB68D21AFB689A42F7D3C0461C
:1002E000BD4604B080BD0000B0B582B000AF0200D2
:1002F0003960FB1D1A70FB1D1B787F2B32D92F4CE8
:10030000FB1D1B781A000F231340083B99082B4A4A
:10031000FB1D1B7818000F230340083B9B08063386
:100320009B00D31804331B68FA1D127810000322B7
:100330000240D200FF2090400200D2431A403B68A6
:100340009B01FF201840FB1D1B781D0003232B4041
:10035000DB00984003001A438B1D9B00E318043315
:100360001A6027E0164CFB1D1B785BB29B081449F2
:10037000FA1D127852B29208C03292005258F91DFA
:100380000978080003210140C900FF2088400100CE
:10039000C94311403A689201FF201040FA1D1278BB
:1003A000150003222A40D200904002000A43C033C5
:1003B0009B001A51C046BD4602B0B0BD00ED00E042
:1003C00000E100E080B582B000AF78607B68013B5F
:1003D0000C4A934201D9012310E00B4B7A68013A91
:1003E0005A6001235B4203211800FFF77DFF064B93
:1003F00000229A60044B07221A6000231800BD46B1
:1004000002B080BDFFFFFF0010E000E080B584B0C7
:1004100000AFB9607A600F23FB18021C1A70BA682B
:100420000F23FB181B785BB211001800FFF75CFF6D
:10043000C046BD4604B080BD80B582B000AF7860D4
:100440007B681800FFF7BEFF03001800BD4602B02E
:1004500080BD000080B582B000AF78607B68042B5F
:1004600006D1084B074A126804210A431A6005E0C6
:10047000044B044A126804218A431A60C046BD46F0
:1004800002B080BD10E000E080B500AF00F003F8DE
:10049000C046BD4680BD80B500AFC046BD4680BDEC
:1004A00080B586B000AF7860396000237B6100239F
:1004B000FB6000233B614FE13B681B6801217A69C7
:1004C00091400A001340FB60FB68002B00D140E123
:1004D0003B685B68022B03D03B685B68122B23D11F
:1004E0007B69DA087B6808329200D3583B617B69EC
:1004F000072213409B000F229A401300DA433B6906
:1005000013403B613B681A697B6907210B409B00E4
:100510009A4013003A6913433B617B69DA087B68B0
:10052000083292003969D1507B681B683B617B6956
:100530005B0003229A401300DA433B6913403B619E
:100540003B685B6803221A407B695B009A4013009A
:100550003A6913433B617B683A691A603B685B68A0
:10056000012B0BD03B685B68022B07D03B685B68B4
:10057000112B03D03B685B68122B30D17B689B68E2
:100580003B617B695B0003229A401300DA433B69BD
:1005900013403B613B68DA687B695B009A4013005B
:1005A0003A6913433B617B683A699A607B685B6890
:1005B0003B6101227B699A401300DA433B69134097
:1005C0003B613B685B681B0901221A407B699A40CA
:1005D00013003A6913433B617B683A695A607B6850
:1005E000DB683B617B695B0003229A401300DA43BE
:1005F0003B6913403B613B689A687B695B009A40AA
:1006000013003A6913433B617B683A69DA603B68DF
:100610005A6880235B05134000D19AE0544B544A3A
:10062000926901210A439A61514B9B69012213404F
:10063000BB60BB684F4A7B699B0802339B009B5899
:100640003B617B69032213409B000F229A401300F9
:10065000DA433B6913403B617A689023DB059A4299
:1006600013D07B68444A93420DD07B68434A93423F
:1006700007D07B68424A934201D1032306E0052359
:1006800004E0022302E0012300E000237A69032151
:100690000A40920093403A6913433B6135497B69B4
:1006A0009B0802339B003A695A50364B1B683B61EA
:1006B000FB68DA433B6913403B613B685A6880231F
:1006C0005B02134003D03A69FB6813433B612D4B37
:1006D0003A691A602B4B5B683B61FB68DA433B6904
:1006E00013403B613B685A6880239B02134003D050
:1006F0003A69FB6813433B61224B3A695A60214BCC
:100700009B683B61FB68DA433B6913403B613B6894
:100710005A6880235B03134003D03A69FB68134394
:100720003B61184B3A699A60164BDB683B61FB688A
:10073000DA433B6913403B613B685A6880239B0363
:10074000134003D03A69FB6813433B610D4B3A6990
:10075000DA607B6901337B613B681A687B69DA4048
:10076000131E00D0A8E6C046BD4606B080BDC046F8
:10077000001002400000014000040048000800484A
:10078000000C00480004014080B584B000AF7860E0
:100790000A00BB1C1A807B681B69BA1C12881340B4
:1007A00004D00F23FB1801221A7003E00F23FB185B
:1007B00000221A700F23FB181B781800BD4604B0E6
:1007C00080BD80B582B000AF786008001100BB1C0E
:1007D000021C1A807B1C0A1C1A707B1C1B78002BC5
:1007E00004D0BB1C1A887B689A6103E0BB1C1A8882
:1007F0007B689A62C046BD4602B080BD80B582B0BB
:1008000000AF78600A00BB1C1A807B685A69BB1C69
:100810001B885A407B685A61C046BD4602B080BD05
:1008200080B586B000AF786000233B617B681B68B1
:100830000122134000D18DE0C34B5B680C221340B2
:10084000042B0ED0C04B5B680C221340082B16D132
:10085000BD4B5A6880235B021A4080235B029A4298
:100860000DD1B94B1A6880239B02134000D170E070
:100870007B685B68002B00D06BE00123B5E27B68EE
:100880005B68012B07D1B04BAF4A12688021490247
:100890000A431A602FE07B685B68002B0CD1AA4BDF
:1008A000A94A1268A9490A401A60A74BA64A1268C9
:1008B000A7490A401A601EE07B685B68052B0ED1D1
:1008C000A14BA14A12688021C9020A431A609E4BBB
:1008D0009D4A1268802149020A431A600BE09A4B34
:1008E000994A126899490A401A60974B964A1268C9
:1008F00097490A401A607B685B68002B14D0FFF7A9
:10090000CBFC03003B6108E0FFF7C6FC02003B693B
:10091000D31A642B01D9032367E28B4B1A68802317
:100920009B021340F0D015E0FFF7B6FC03003B61DB
:1009300008E0FFF7B1FC02003B69D31A642B01D930
:10094000032352E2804B1A6880239B021340F0D1AC
:1009500000E0C0467B681B680222134000D169E0BA
:10096000794B5B680C2213400BD0774B5B680C22F1
:100970001340082B1CD1744B5A6880235B02134030
:1009800016D1714B1B680222134005D07B68DB68CF
:10099000012B01D0012328E26B4A6B4B1B68F82125
:1009A0008B4319007B681B69DB000B43136041E03C
:1009B0007B68DB68002B24D0634B634A12680121FB
:1009C0000A431A60FFF768FC03003B6108E0FFF789
:1009D00063FC02003B69D31A022B01D9032304E212
:1009E000594B1B6802221340F1D0574A564B1B68E3
:1009F000F8218B4319007B681B69DB000B431360F4
:100A000018E0514B504A126801218A431A60FFF7DF
:100A100043FC03003B6108E0FFF73EFC02003B693A
:100A2000D31A022B01D90323DFE1474B1B680222B3
:100A30001340F1D17B681B680822134036D07B68D5
:100A4000DB69002B19D0404B3F4A526A01210A430F
:100A50005A62FFF721FC03003B6108E0FFF71CFC32
:100A600002003B69D31A022B01D90323BDE1364BA7
:100A70005B6A02221340F1D018E0334B324A526ACB
:100A800001218A435A62FFF707FC03003B6108E03B
:100A9000FFF702FC02003B69D31A022B01D90323A2
:100AA000A3E1294B5B6A02221340F1D17B681B68EA
:100AB0000422134000D1B5E01723FB1800221A705E
:100AC000214BDA6980235B05134011D11E4B1E4A6E
:100AD000D269802149050A43DA611B4BDA69802318
:100AE0005B051340FB60FB681723FB1801221A709B
:100AF000184B1A6880235B0013401AD1154B154A16
:100B00001268802149000A431A60FFF7C5FB030001
:100B10003B6108E0FFF7C0FB02003B69D31A642B7E
:100B200001D9032361E10B4B1A6880235B0013405A
:100B3000F0D07B689B68012B0ED1034B024A126AEE
:100B400001210A431A6235E000100240FFFFFEFF58
:100B5000FFFFFBFF007000407B689B68002B0CD1FF
:100B6000A44BA44A126A01218A431A62A14BA14AEA
:100B7000126A04218A431A621CE07B689B68052B79
:100B80000CD19C4B9B4A126A04210A431A62994B6E
:100B9000984A126A01210A431A620BE0954B954A62
:100BA000126A01218A431A62924B924A126A042104
:100BB0008A431A627B689B68002B14D0FFF76CFB9A
:100BC00003003B6109E0FFF767FB02003B69D31AB2
:100BD000894A934201D9032307E1864B1B6A02220B
:100BE0001340F0D013E0FFF757FB03003B6109E02F
:100BF000FFF752FB02003B69D31A7F4A934201D9A7
:100C00000323F2E07B4B1B6A02221340F0D117232F
:100C1000FB181B78012B05D1764B764AD2697749B0
:100C20000A40DA617B681B681022134063D07B683E
:100C30005B69012B2AD16F4B6E4A526B04210A4328
:100C40005A636C4B6B4A526B01210A435A63FFF79C
:100C500023FB03003B6108E0FFF71EFB02003B693A
:100C6000D31A022B01D90323BFE0624B5B6B022234
:100C70001340F1D05F4A5F4B5B6BF8218B43190047
:100C80007B689B69DB000B43536334E07B685B69E3
:100C9000053311D1574B574A526B04218A435A638B
:100CA000544A544B5B6BF8218B4319007B689B695A
:100CB000DB000B4353631EE04E4B4E4A526B042144
:100CC0000A435A634B4B4B4A526B01218A435A6386
:100CD000FFF7E2FA03003B6108E0FFF7DDFA0200EC
:100CE0003B69D31A022B01D903237EE0414B5B6B96
:100CF00002221340F1D17B681B6A002B00D173E004
:100D00003C4B5B680C221340082B00D16AE07B68E7
:100D10001B6A022B4BD1374B364A126838490A40BE
:100D20001A60FFF7B9FA03003B6108E0FFF7B4FA75
:100D300002003B69D31A022B01D9032355E02D4B46
:100D40001A6880239B041340F0D12A4A294BDB6A9E
:100D50000F218B4319007B68DB6A0B43D362254A62
:100D6000244B5B68274919407B68986A7B685B6AFB
:100D700003430B4353601F4B1E4A126880214904F2
:100D80000A431A60FFF788FA03003B6108E0FFF7A7
:100D900083FA02003B69D31A022B01D9032324E012
:100DA000144B1A6880239B041340F0D01CE0114BB5
:100DB000104A126812490A401A60FFF76DFA0300E0
:100DC0003B6108E0FFF768FA02003B69D31A022B87
:100DD00001D9032309E0074B1A6880239B041340C1
:100DE000F0D101E0012300E000231800BD4606B069
:100DF00080BDC0460010024088130000FFFFFFEFD7
:100E0000FFFFFFFEFFFFC2FF80B584B000AF786038
:100E100039600023FB60694B1B6801221A403B6864
:100E20009A4211D2654B654A126801218A4311002A
:100E30003A680A431A60614B1B6801221A403B68FA
:100E40009A4201D00123B5E07B681B68022213405F
:100E500009D05B4A5A4B5B68F0218B4319007B68D1
:100E60009B680B4353607B681B680122134000D1D1
:100E700067E07B685B68012B07D1514B1A688023C0
:100E80009B02134014D1012394E07B685B68022B22
:100E900007D14B4B1A6880239B04134008D10123D0
:100EA00088E0474B1B680222134001D1012381E0F7
:100EB000434A434B5B6803218B4319007B685B68A3
:100EC0000B435360FFF7E8F90300FB607B685B6846
:100ED000012B11D109E0FFF7DFF90200FB68D31AFB
:100EE000384A934201D9032364E0354B5B680C22F6
:100EF0001340042BEFD124E07B685B68022B1BD1ED
:100F000009E0FFF7C9F90200FB68D31A2D4A9342A2
:100F100001D903234EE02A4B5B680C221340082BB7
:100F2000EFD10EE0FFF7B8F90200FB68D31A254AAB
:100F3000934201D903233DE0214B5B680C2213400F
:100F4000F0D11E4B1B6801221A403B689A4211D90E
:100F50001A4B1A4A126801218A4311003A680A435F
:100F60001A60164B1B6801221A403B689A4201D056
:100F700001231FE07B681B680422134008D0104A3D
:100F80000F4B5B68104919407B68DB680B4353606B
:100F900000F020F801000A4B5B681B090F22134088
:100FA0000A4AD35C0A00DA40094B1A600020FFF7B6
:100FB0004BF900231800BD4604B080BD002002405C
:100FC0000010024088130000FFF8FFFFB81C000863
:100FD0000000002090B58FB000AF1423FB18284A02
:100FE00013CA13C312681A603B1D264A13CA13C3DF
:100FF00012681A600023FB620023BB6200237B633C
:1010000000237B6200233B631F4B5B68FB62FB6A30
:101010000C221340042B02D0082B03D027E01B4BDB
:101020003B6327E0FB6A9B0C0F2213401422BA1883
:10103000D35C7B62144BDB6A0F2213403A1DD35CF6
:10104000BB62FA6A80235B02134009D0B96A0F4879
:10105000FFF75AF803001A007B6A53437B6303E0EF
:101060007B6A0B4A53437B637B6B3B6302E0074B1A
:101070003B63C0463B6B1800BD460FB090BDC046F9
:10108000741C0008841C00080010024000127A0042
:1010900000093D0080B500AF024B1B681800BD463B
:1010A00080BDC0460000002080B500AFFFF7F2FF12
:1010B0000100064B5B681B0A07221340044AD35CFD
:1010C000D9400B001800BD4680BDC046001002404C
:1010D000C81C000880B582B000AF78607B68002B28
:1010E00001D1012347E07B6869229B5CDBB2002BC6
:1010F00007D17B686822002199547B68180000F0B2
:10110000D5FC7B686922242199547B681B687A6826
:101110001268126801218A431A607B68180000F087
:10112000D5F80300012B01D1012324E07B685B6A21
:10113000002B03D07B68180000F03EFA7B681B6828
:101140007A68126852680E490A405A607B681B68C8
:101150007A681268926808218A439A607B681B68E3
:101160007A681268126801210A431A607B681800C5
:1011700000F0CEFA03001800BD4602B080BDC046A4
:10118000FFF7FFFF80B588B002AFF860B9603B6041
:10119000BB1D1A8000237B61FB6869229B5CDBB26C
:1011A000202B00D08CE0BB68002B03D0BB1D1B881C
:1011B000002B01D1012384E0FB689A6880235B0146
:1011C0009A4209D1FB681B69002B05D1BB6801223B
:1011D000134001D0012374E0FB6868229B5C012B63
:1011E00001D102236DE0FB68682201219954FB685C
:1011F0000022DA66FB68692221219954FFF74CF836
:1012000003007B61FB68BA1D502112885A52FB68AB
:10121000BA1D522112885A5235E0FB6852229B5A5D
:101220009BB2013B99B2FB68522299527A69F868E5
:101230003B68009313000022802100F081FA031E16
:1012400001D003233DE0FB689A6880235B019A424A
:1012500011D1FB681B69002B0DD1BB683B61FB689A
:101260001B683A691288D205D20D92B21A85BB6802
:101270000233BB6007E0FB681A68BB68591CB960A1
:101280001B789BB21385FB6852229B5A9BB2002BA2
:10129000C3D17A69F8683B680093130000224021AB
:1012A00000F04EFA031E01D003230AE0FB68692216
:1012B00020219954FB68682200219954002300E002
:1012C00002231800BD4606B080BD000090B587B06F
:1012D00000AF78600023FB601723FB1810221A7000
:1012E0000A23FB1800221A801423FB1800221A80FC
:1012F0001323FB1800221A707B689A687B681B69AD
:101300001A437B685B691A437B68DB691343FB60A4
:101310007B681B687A68126812689F491140FA68F6
:101320000A431A607B681B687A68126852689B4996
:1013300011407A68D2680A435A607B689A697B6870
:101340001B6A1343FB607B681B687A6812689268AB
:1013500093491140FA680A439A607B681B68914A76
:10136000934225D1904B1B6B03221340012B0FD0CE
:1013700004D3022B11D0032B05D013E01723FB1845
:1013800000221A7022E01723FB1802221A701DE0B7
:101390001723FB1804221A7018E01723FB180822E1
:1013A0001A7013E01723FB1810221A70C0460DE0C4
:1013B0007B681B687D4A934204D11723FB180022E7
:1013C0001A7003E01723FB1810221A707B68DA6981
:1013D00080231B029A4200D07BE01723FB181B7866
:1013E000022B1CD002DC002B05D04FE0042B27D0B1
:1013F000082B39D04AE0FFF757FE03005A007B68FC
:101400005B685B08D2187B685B6819001000FEF708
:101410007BFE03001A001423FB181A803BE07B6854
:101420005B685B08624A9A187B685B681900100069
:10143000FEF76AFE03001A001423FB181A802AE044
:10144000FFF7C8FD03005A007B685B685B08D21891
:101450007B685B6819001000FEF756FE03001A0057
:101460001423FB181A8016E07B685B685B088022F7
:1014700052029A187B685B6819001000FEF744FE60
:1014800003001A001423FB181A8004E01323FB182E
:1014900001221A70C0460A23FB181422BA181288B7
:1014A0000F218A431A801423FB181B885B109BB200
:1014B0000722134099B20A23FB180A22BA1812888D
:1014C0000A431A807B681B680A22BA181288DA60FD
:1014D0005BE01723FB181B78022B1BD002DC002BD0
:1014E00005D04DE0042B26D0082B37D048E07B6890
:1014F0001C68FFF7D9FD02007B685B685B08D218A7
:101500007B685B6819001000FEF7FEFD03009BB2CC
:10151000E3603AE07B681C687B685B685B08254A8F
:101520009A187B685B6819001000FEF7EDFD030058
:101530009BB2E36029E07B681C68FFF74BFD02006B
:101540007B685B685B08D2187B685B6819001000D9
:10155000FEF7DAFD03009BB2E36016E07B681C68CF
:101560007B685B685B08802212029A187B685B6864
:1015700019001000FEF7C8FD03009BB2E36004E011
:101580001323FB1801221A70C0461323FB181B7883
:101590001800BD4607B090BDF369FFFFFFCFFFFF06
:1015A000FFF4FFFF003801400010024000440040FB
:1015B0000024F40000127A0080B582B000AF786099
:1015C0007B685B6A012213400AD07B681B687A68DB
:1015D00012685268454911407A68926A0A435A6013
:1015E0007B685B6A022213400AD07B681B687A68BA
:1015F000126852683E4911407A68D26A0A435A60BA
:101600007B685B6A042213400AD07B681B687A6897
:1016100012685268374911407A68126B0A435A605F
:101620007B685B6A082213400AD07B681B687A6873
:1016300012685268304911407A68526B0A435A6006
:101640007B685B6A102213400AD07B681B687A684B
:1016500012689268294911407A68926B0A439A602D
:101660007B685B6A202213400AD07B681B687A681B
:1016700012689268224911407A68D26B0A439A60D4
:101680007B685B6A402213401BD07B681B687A68CA
:10169000126852681B4911407A68126C0A435A60FA
:1016A0007B681A6C80235B039A420AD17B681B68B3
:1016B0007A6812685268144911407A68526C0A4379
:1016C0005A607B685B6A802213400AD07B681B6883
:1016D0007A68126852680D4911407A68926C0A4320
:1016E0005A60C046BD4602B080BDC046FFFFFDFF48
:1016F000FFFFFEFFFFFFFBFFFF7FFFFFFFEFFFFF8F
:10170000FFDFFFFFFFFFEFFFFFFF9FFFFFFFF7FF81
:1017100080B582B000AF78607B680022DA667B68B3
:101720006922202199547B686A22202199547B6880
:1017300068220021995400231800BD4602B080BDE4
:1017400080B584B000AFF860B9603B60FB1D1A70D3
:101750002BE0BB69013328D0BB69002B07D0FEF713
:101760009BFD02003B68D21ABB699A421DD9FB68F7
:101770001B68FA681268126816490A401A60FB680A
:101780001B68FA681268926801218A439A60FB68B4
:10179000692220219954FB686A2220219954FB6810
:1017A00068220021995403230FE0FB681B68DB6962
:1017B000BA681A40BB68D31A5A425341DBB21A00C6
:1017C000FB1D1B789A42C4D000231800BD4604B00C
:1017D00080BDC0465FFEFFFF80B500AFFEF720FD75
:1017E00000F026F800F0BAF800F082F880239B01A0
:1017F0000C4A19001000FEF7C7FF031EF6D1902314
:10180000DB0520211800FEF7F9FFFA239B000649AB
:1018100006481222FFF7B6FCFA235B001800FEF719
:1018200045FDE3E700080048941C00082400002060
:1018300080B590B000AF1023FB1802221A6010236D
:10184000FB180122DA601023FB1810221A61102302
:10185000FB1802221A621023FB1800225A6210237E
:10186000FB18A02292039A621023FB180022DA626E
:101870001023FB181800FEF7D3FF031E04D01B4BE8
:101880009121180000F0D4F83B0007221A603B00B9
:1018900002225A603B0000229A603B000022DA607C
:1018A0003B0001211800FFF7AFFA031E04D00F4BD5
:1018B0009E21180000F0BCF8FFF7ECFB0200FA23B1
:1018C00099001000FEF720FC03001800FEF7B4FD9D
:1018D0000420FEF7BFFD01235B4200220021180017
:1018E000FEF794FDC046BD4610B080BDA81C0008A0
:1018F00080B500AF164B174A1A60154BE122520211
:101900005A60134B00229A60114B0022DA60104B90
:1019100000221A610E4B0C225A610D4B00229A6173
:101920000B4B0022DA610A4B00221A62084B00229C
:101930005A62074B1800FFF7CDFB031E04D0064B7D
:10194000BD21180000F074F8C046BD4680BDC046F9
:101950002400002000440040A81C000880B588B086
:1019600000AF304B2F4A5269802109030A435A6164
:101970002C4B5A6980231B031340BB60BB68294B67
:10198000284A52698021C9030A435A61254B5A6982
:101990008023DB0313407B607B68224B214A526922
:1019A000802189020A435A611E4B5A6980239B0297
:1019B00013403B603B689023DB0500222021180088
:1019C000FEF7FFFE0C23FB18802292011A600C2305
:1019D000FB18154A5A600C23FB1800229A600C234E
:1019E000FB18124A19001000FEF75AFD0C23FB18D1
:1019F00020221A600C23FB1801225A600C23FB18CA
:101A000000229A600C23FB180022DA600C23FA18DB
:101A10009023DB0511001800FEF742FDC046BD46CD
:101A200008B080BD001002400000211000080048EE
:101A300080B582B000AF78603960FEE780B582B0D3
:101A400000AF194B184A926901210A439A61164B5B
:101A50009B69012213407B607B68134B124AD26959
:101A6000802149050A43DA610F4BDA6980235B055F
:101A700013403B603B6805235B42002200211800B5
:101A8000FEF7C4FC02235B42002200211800FEF78F
:101A9000BDFC01235B42002200211800FEF7B6FCCA
:101AA000C046BD4602B080BD0010024080B588B07F
:101AB00000AF78607B681B68184A934229D1184BA5
:101AC000174AD269802189020A43DA61144BDA6924
:101AD00080239B021340BB60BB680C23FB180C22C5
:101AE0001A600C23FB1802225A600C23FB180022F8
:101AF0009A600C23FB180022DA600C23FB180122E9
:101B00001A610C23FA189023DB0511001800FEF768
:101B1000C7FCC046BD4608B080BDC046004400407A
:101B20000010024080B500AFFEF7AAFBFEF7ACFC48
:101B3000C046BD4680BD000080B500AF1A4B1A4AB2
:101B4000126801210A431A60174B174A5268174955
:101B50000A405A60144B144A126815490A401A6028
:101B6000114B114A126813490A401A600E4B0E4A73
:101B7000526811490A405A600B4B0B4AD26A0F2136
:101B80008A43DA62084B084A126B0C490A401A630E
:101B9000054B054A526B01218A435A63024B0022CE
:101BA0009A60C046BD4680BD001002400CB8FF08D8
:101BB000FFFFF6FEFFFFFBFFFFFFC0FFECFEFFFF96
:101BC0000D4885460D480E490E4A002302E0D458C0
:101BD000C4500433C4188C42F9D30B4A0B4C002375
:101BE00001E013600432A242FBD3FFF7A5FF00F02F
:101BF00011F8FFF7F1FDFEE70020002000000020B3
:101C000004000020D81C00080400002094000020DC
:101C1000FEE7000070B500260C4D0D4C641BA410AF
:101C2000A64209D1002600F019F80A4D0A4C641B9F
:101C3000A410A64205D170BDB300EB5898470136F9
:101C4000EEE7B300EB5898470136F2E7D01C0008E6
:101C5000D01C0008D01C0008D41C0008F8B5C046F1
:101C6000F8BC08BC9E467047F8B5C046F8BC08BC36
:041C70009E467047D5
:101C740002030405060708090A0B0C0D0E0F1010C9
:101C84000102030405060708090A0B0C0D0E0F10C8
:101C9400425554544F4E20505245535345440D0A17
:101CA400000000002E2E5C5372635C6D61696E2E21
:101CB40063000000000000000000000001020304B3
:0C1CC400060708090000000001020304EC
:041CD000E90000081F
:041CD400C100000843
:041CD80000127A007C
:0400000508001BC113
:00000001FF
