:020000040800F2
:1000000000200020F92B0008492C0008492C00088A
:1000100000000000000000000000000000000000E0
:10002000000000000000000000000000151A000899
:100030000000000000000000311B00085D2B0008DC
:10004000492C000800000000492C0008492C000839
:10005000492C0008492C0008492C0008492C0008AC
:1000600000000000492C0008492C0008492C000819
:10007000492C0008492C0008492C00080000000009
:10008000492C0008492C000800000000492C0008F9
:10009000492C0008492C0008492C0008492C00086C
:1000A000492C0008492C0008492C0008492C00085C
:1000B000492C0008000000000000000000000000C3
:1000C00010B5064C2378002B07D1054B002B02D02E
:1000D000044800E000BF0123237010BD0800002089
:1000E00000000000942C0008044B10B5002B03D036
:1000F0000349044800E000BF10BDC04600000000F6
:100100000C000020942C0008002243088B4274D37A
:1001100003098B425FD3030A8B4244D3030B8B4208
:1001200028D3030C8B420DD3FF22090212BA030C11
:100130008B4202D31212090265D0030B8B4219D3F2
:1001400000E0090AC30B8B4201D3CB03C01A524112
:10015000830B8B4201D38B03C01A5241430B8B425A
:1001600001D34B03C01A5241030B8B4201D30B0343
:10017000C01A5241C30A8B4201D3CB02C01A52416A
:10018000830A8B4201D38B02C01A5241430A8B422D
:1001900001D34B02C01A5241030A8B4201D30B0216
:1001A000C01A5241CDD2C3098B4201D3CB01C01A30
:1001B000524183098B4201D38B01C01A524143093A
:1001C0008B4201D34B01C01A524103098B4201D328
:1001D0000B01C01A5241C3088B4201D3CB00C01A95
:1001E000524183088B4201D38B00C01A524143080D
:1001F0008B4201D34B00C01A5241411A00D2014632
:10020000524110467047FFE701B5002000F006F8A4
:1002100002BDC0460029F7D076E770477047C04658
:1002200080B500AF074B074A126810210A431A60D5
:10023000032000F009F802F01DFC00231800BD4661
:1002400080BDC0460020024080B582B000AF78601B
:1002500000F0F6FE0200FA2399001000FFF754FFA9
:100260000300180000F0CAF8796801235B420022FD
:10027000180000F0ADF800231800BD4602B080BDA4
:1002800080B500AF034B1B685A1C024B1A60C04676
:10029000BD4680BD680D002080B500AF024B1B68D5
:1002A0001800BD4680BDC046680D0020B0B582B0C4
:1002B00000AF02003960FB1D1A70FB1D1B787F2BFD
:1002C00032D92F4CFB1D1B781A000F231340083B1B
:1002D00099082B4AFB1D1B7818000F230340083B8D
:1002E0009B0806339B00D31804331B68FA1D127851
:1002F000100003220240D200FF2090400200D243AF
:100300001A403B689B01FF201840FB1D1B781D0015
:1003100003232B40DB00984003001A438B1D9B00F6
:10032000E31804331A6027E0164CFB1D1B785BB200
:100330009B081449FA1D127852B29208C0329200FA
:100340005258F91D0978080003210140C900FF2017
:1003500088400100C94311403A689201FF201040D3
:10036000FA1D1278150003222A40D20090400200A4
:100370000A43C0339B001A51C046BD4602B0B0BD0F
:1003800000ED00E000E100E080B582B000AF7860F1
:100390007B68013B0C4A934201D9012310E00B4BCF
:1003A0007A68013A5A6001235B4203211800FFF783
:1003B0007DFF064B00229A60044B07221A6000233F
:1003C0001800BD4602B080BDFFFFFF0010E000E056
:1003D00080B584B000AFB9607A600F23FB18021CAF
:1003E0001A70BA680F23FB181B785BB21100180053
:1003F000FFF75CFFC046BD4604B080BD80B582B04B
:1004000000AF78607B681800FFF7BEFF030018009C
:10041000BD4602B080BD000080B582B000AF7860FC
:100420007B68042B06D1084B074A126804210A4353
:100430001A6005E0044B044A126804218A431A60DA
:10044000C046BD4602B080BD10E000E080B586B079
:1004500000AF7860396000237B610023FB600023DC
:100460003B614FE13B681B6801217A6991400A00BA
:100470001340FB60FB68002B00D140E13B685B68E8
:10048000022B03D03B685B68122B23D17B69DA080F
:100490007B6808329200D3583B617B690722134086
:1004A0009B000F229A401300DA433B6913403B61E3
:1004B0003B681A697B6907210B409B009A40130037
:1004C0003A6913433B617B69DA087B680832920022
:1004D0003969D1507B681B683B617B695B000322F3
:1004E0009A401300DA433B6913403B613B685B6809
:1004F00003221A407B695B009A4013003A69134358
:100500003B617B683A691A603B685B68012B0BD0E2
:100510003B685B68022B07D03B685B68112B03D0FC
:100520003B685B68122B30D17B689B683B617B69C1
:100530005B0003229A401300DA433B6913403B619E
:100540003B68DA687B695B009A4013003A691343A1
:100550003B617B683A699A607B685B683B6101221A
:100560007B699A401300DA433B6913403B613B6867
:100570005B681B0901221A407B699A4013003A69A3
:1005800013433B617B683A695A607B68DB683B6177
:100590007B695B0003229A401300DA433B691340F6
:1005A0003B613B689A687B695B009A4013003A693B
:1005B00013433B617B683A69DA603B685A68802381
:1005C0005B05134000D19AE0544B544A92690121D3
:1005D0000A439A61514B9B6901221340BB60BB687F
:1005E0004F4A7B699B0802339B009B583B617B69A8
:1005F000032213409B000F229A401300DA433B6909
:1006000013403B617A689023DB059A4213D07B68E4
:10061000444A93420DD07B68434A934207D07B689B
:10062000424A934201D1032306E0052304E002235A
:1006300002E0012300E000237A6903210A409200CE
:1006400093403A6913433B6135497B699B08023308
:100650009B003A695A50364B1B683B61FB68DA4392
:100660003B6913403B613B685A6880235B0213403F
:1006700003D03A69FB6813433B612D4B3A691A601A
:100680002B4B5B683B61FB68DA433B6913403B6182
:100690003B685A6880239B02134003D03A69FB6889
:1006A00013433B61224B3A695A60214B9B683B6183
:1006B000FB68DA433B6913403B613B685A6880231F
:1006C0005B03134003D03A69FB6813433B61184B4B
:1006D0003A699A60164BDB683B61FB68DA433B6919
:1006E00013403B613B685A6880239B03134003D04F
:1006F0003A69FB6813433B610D4B3A69DA607B69E9
:1007000001337B613B681A687B69DA40131E00D0B5
:10071000A8E6C046BD4606B080BDC04600100240F7
:10072000000001400004004800080048000C004898
:100730000004014080B584B000AF78600A00BB1CA3
:100740001A807B681B69BA1C1288134004D00F23DF
:10075000FB1801221A7003E00F23FB1800221A7005
:100760000F23FB181B781800BD4604B080BD80B570
:1007700082B000AF786008001100BB1C021C1A8018
:100780007B1C0A1C1A707B1C1B78002B04D0BB1C22
:100790001A887B689A6103E0BB1C1A887B689A629E
:1007A000C046BD4602B080BD80B582B000AF786063
:1007B0000A00BB1C1A807B685A69BB1C1B885A4004
:1007C0007B685A61C046BD4602B080BD80B586B028
:1007D00000AF786000233B617B681B6801221340F7
:1007E00000D18DE0C34B5B680C221340042B0ED06C
:1007F000C04B5B680C221340082B16D1BD4B5A68C6
:1008000080235B021A4080235B029A420DD1B94BD0
:100810001A6880239B02134000D170E07B685B68FC
:10082000002B00D06BE00123B5E27B685B68012BF5
:1008300007D1B04BAF4A1268802149020A431A60BF
:100840002FE07B685B68002B0CD1AA4BA94A126889
:10085000A9490A401A60A74BA64A1268A7490A404C
:100860001A601EE07B685B68052B0ED1A14BA14A84
:1008700012688021C9020A431A609E4B9D4A126881
:10088000802149020A431A600BE09A4B994A126888
:1008900099490A401A60974B964A126897490A404C
:1008A0001A607B685B68002B14D0FFF7F5FC03002F
:1008B0003B6108E0FFF7F0FC02003B69D31A642BB0
:1008C00001D9032367E28B4B1A6880239B021340F4
:1008D000F0D015E0FFF7E0FC03003B6108E0FFF714
:1008E000DBFC02003B69D31A642B01D9032352E2DB
:1008F000804B1A6880239B021340F0D100E0C04671
:100900007B681B680222134000D169E0794B5B6869
:100910000C2213400BD0774B5B680C221340082B42
:100920001CD1744B5A6880235B02134016D1714B63
:100930001B680222134005D07B68DB68012B01D0C5
:10094000012328E26B4A6B4B1B68F8218B4319008B
:100950007B681B69DB000B43136041E07B68DB684D
:10096000002B24D0634B634A126801210A431A60AA
:10097000FFF792FC03003B6108E0FFF78DFC0200EB
:100980003B69D31A022B01D9032304E2594B1B689C
:1009900002221340F1D0574A564B1B68F8218B4373
:1009A00019007B681B69DB000B43136018E0514B97
:1009B000504A126801218A431A60FFF76DFC030058
:1009C0003B6108E0FFF768FC02003B69D31A022B89
:1009D00001D90323DFE1474B1B6802221340F1D109
:1009E0007B681B680822134036D07B68DB69002BCC
:1009F00019D0404B3F4A526A01210A435A62FFF71D
:100A00004BFC03003B6108E0FFF746FC02003B693A
:100A1000D31A022B01D90323BDE1364B5B6A0222B4
:100A20001340F1D018E0334B324A526A01218A4315
:100A30005A62FFF731FC03003B6108E0FFF72CFC32
:100A400002003B69D31A022B01D90323A3E1294BEE
:100A50005B6A02221340F1D17B681B6804221340B9
:100A600000D1B5E01723FB1800221A70214BDA6978
:100A700080235B05134011D11E4B1E4AD269802191
:100A800049050A43DA611B4BDA6980235B05134091
:100A9000FB60FB681723FB1801221A70184B1A68B9
:100AA00080235B0013401AD1154B154A1268802130
:100AB00049000A431A60FFF7EFFB03003B6108E0BF
:100AC000FFF7EAFB02003B69D31A642B01D9032329
:100AD00061E10B4B1A6880235B001340F0D07B6808
:100AE0009B68012B0ED1034B024A126A01210A4373
:100AF0001A6235E000100240FFFFFEFFFFFFFBFF20
:100B0000007000407B689B68002B0CD1A44BA44A6A
:100B1000126A01218A431A62A14BA14A126A042176
:100B20008A431A621CE07B689B68052B0CD19C4BA6
:100B30009B4A126A04210A431A62994B984A126A24
:100B400001210A431A620BE0954B954A126A012172
:100B50008A431A62924B924A126A04218A431A62A9
:100B60007B689B68002B14D0FFF796FB03003B616A
:100B700009E0FFF791FB02003B69D31A894A9342CF
:100B800001D9032307E1864B1B6A02221340F0D0F0
:100B900013E0FFF781FB03003B6109E0FFF77CFBFB
:100BA00002003B69D31A7F4A934201D90323F2E042
:100BB0007B4B1B6A02221340F0D11723FB181B78D2
:100BC000012B05D1764B764AD26977490A40DA6122
:100BD0007B681B681022134063D07B685B69012B24
:100BE0002AD16F4B6E4A526B04210A435A636C4BF5
:100BF0006B4A526B01210A435A63FFF74DFB030016
:100C00003B6108E0FFF748FB02003B69D31A022B67
:100C100001D90323BFE0624B5B6B02221340F1D08A
:100C20005F4A5F4B5B6BF8218B4319007B689B69C4
:100C3000DB000B43536334E07B685B69053311D100
:100C4000574B574A526B04218A435A63544A544BB8
:100C50005B6BF8218B4319007B689B69DB000B43BE
:100C600053631EE04E4B4E4A526B04210A435A63B3
:100C70004B4B4B4A526B01218A435A63FFF70CFBE3
:100C800003003B6108E0FFF707FB02003B69D31A52
:100C9000022B01D903237EE0414B5B6B0222134000
:100CA000F1D17B681B6A002B00D173E03C4B5B6881
:100CB0000C221340082B00D16AE07B681B6A022BD0
:100CC0004BD1374B364A126838490A401A60FFF751
:100CD000E3FA03003B6108E0FFF7DEFA02003B693C
:100CE000D31A022B01D9032355E02D4B1A68802318
:100CF0009B041340F0D12A4A294BDB6A0F218B4316
:100D000019007B68DB6A0B43D362254A244B5B687E
:100D1000274919407B68986A7B685B6A03430B43E9
:100D200053601F4B1E4A1268802149040A431A600F
:100D3000FFF7B2FA03003B6108E0FFF7ADFA0200EB
:100D40003B69D31A022B01D9032324E0144B1A6800
:100D500080239B041340F0D01CE0114B104A126812
:100D600012490A401A60FFF797FA03003B6108E056
:100D7000FFF792FA02003B69D31A022B01D9032331
:100D800009E0074B1A6880239B041340F0D101E06F
:100D9000012300E000231800BD4606B080BDC04618
:100DA0000010024088130000FFFFFFEFFFFFFFFE6F
:100DB000FFFFC2FF80B584B000AF786039600023C8
:100DC000FB60694B1B6801221A403B689A4211D2B2
:100DD000654B654A126801218A4311003A680A434B
:100DE0001A60614B1B6801221A403B689A4201D08D
:100DF0000123B5E07B681B680222134009D05B4ADF
:100E00005A4B5B68F0218B4319007B689B680B434E
:100E100053607B681B680122134000D167E07B6848
:100E20005B68012B07D1514B1A6880239B0213404A
:100E300014D1012394E07B685B68022B07D14B4BF4
:100E40001A6880239B04134008D1012388E0474B94
:100E50001B680222134001D1012381E0434A434B26
:100E60005B6803218B4319007B685B680B4353600D
:100E7000FFF712FA0300FB607B685B68012B11D15E
:100E800009E0FFF709FA0200FB68D31A384A9342D7
:100E900001D9032364E0354B5B680C221340042B1B
:100EA000EFD124E07B685B68022B1BD109E0FFF7E0
:100EB000F3F90200FB68D31A2D4A934201D90323A8
:100EC0004EE02A4B5B680C221340082BEFD10EE05A
:100ED000FFF7E2F90200FB68D31A254A934201D9D1
:100EE00003233DE0214B5B680C221340F0D11E4BE5
:100EF0001B6801221A403B689A4211D91A4B1A4AC0
:100F0000126801218A4311003A680A431A60164B9D
:100F10001B6801221A403B689A4201D001231FE05E
:100F20007B681B680422134008D0104A0F4B5B6893
:100F3000104919407B68DB680B43536000F020F8D0
:100F400001000A4B5B681B090F2213400A4AD35C5D
:100F50000A00DA40094B1A600320FFF775F90023F5
:100F60001800BD4604B080BD0020024000100240C1
:100F700088130000FFF8FFFF182D00080400002070
:100F800090B58FB000AF1423FB18284A13CA13C3BF
:100F900012681A603B1D264A13CA13C312681A60EE
:100FA0000023FB620023BB6200237B6300237B6280
:100FB00000233B631F4B5B68FB62FB6A0C22134000
:100FC000042B02D0082B03D027E01B4B3B6327E008
:100FD000FB6A9B0C0F2213401422BA18D35C7B626D
:100FE000144BDB6A0F2213403A1DD35CBB62FA6AD2
:100FF00080235B02134009D0B96A0F48FFF784F8D9
:1010000003001A007B6A53437B6303E07B6A0B4A4D
:1010100053437B637B6B3B6302E0074B3B63C04600
:101020003B6B1800BD460FB090BDC046AC2C00080D
:10103000BC2C00080010024000127A0000093D009C
:1010400080B500AF024B1B681800BD4680BDC0468E
:101050000400002080B500AFFFF7F2FF0100064B4F
:101060005B681B0A07221340044AD35CD9400B007B
:101070001800BD4680BDC04600100240282D000863
:1010800080B582B000AF78607B68002B01D101236E
:1010900047E07B6869229B5CDBB2002B07D17B6851
:1010A0006822002199547B68180001F01BFD7B68C1
:1010B0006922242199547B681B687A681268126837
:1010C00001218A431A607B68180000F0D5F80300FC
:1010D000012B01D1012324E07B685B6A002B03D044
:1010E0007B68180000F03EFA7B681B687A6812681B
:1010F00052680E490A405A607B681B687A68126819
:10110000926808218A439A607B681B687A68126833
:10111000126801210A431A607B68180000F0CEFAB9
:1011200003001800BD4602B080BDC046FFF7FFFFB8
:1011300080B588B002AFF860B9603B60BB1D1A8013
:1011400000237B61FB6869229B5CDBB2202B00D013
:101150008CE0BB68002B03D0BB1D1B88002B01D18A
:10116000012384E0FB689A6880235B019A4209D1DD
:10117000FB681B69002B05D1BB680122134001D01D
:10118000012374E0FB6868229B5C012B01D10223E0
:101190006DE0FB68682201219954FB680022DA6641
:1011A000FB68692221219954FFF776F803007B61DF
:1011B000FB68BA1D502112885A52FB68BA1D522191
:1011C00012885A5235E0FB6852229B5A9BB2013B6F
:1011D00099B2FB68522299527A69F8683B68009389
:1011E00013000022802100F081FA031E01D00323A6
:1011F0003DE0FB689A6880235B019A4211D1FB684D
:101200001B69002B0DD1BB683B61FB681B683A6909
:101210001288D205D20D92B21A85BB680233BB6028
:1012200007E0FB681A68BB68591CB9601B789BB261
:101230001385FB6852229B5A9BB2002BC3D17A695B
:10124000F8683B68009313000022402100F04EFA3A
:10125000031E01D003230AE0FB6869222021995470
:10126000FB68682200219954002300E00223180043
:10127000BD4606B080BD000090B587B000AF786075
:101280000023FB601723FB1810221A700A23FB1897
:1012900000221A801423FB1800221A801323FB1843
:1012A00000221A707B689A687B681B691A437B6806
:1012B0005B691A437B68DB691343FB607B681B68CF
:1012C0007A68126812689F491140FA680A431A60E6
:1012D0007B681B687A68126852689B4911407A687B
:1012E000D2680A435A607B689A697B681B6A134319
:1012F000FB607B681B687A681268926893491140AA
:10130000FA680A439A607B681B68914A934225D128
:10131000904B1B6B03221340012B0FD004D3022BE5
:1013200011D0032B05D013E01723FB1800221A70ED
:1013300022E01723FB1802221A701DE01723FB1866
:1013400004221A7018E01723FB1808221A7013E001
:101350001723FB1810221A70C0460DE07B681B682B
:101360007D4A934204D11723FB1800221A7003E030
:101370001723FB1810221A707B68DA6980231B027E
:101380009A4200D07BE01723FB181B78022B1CD05D
:1013900002DC002B05D04FE0042B27D0082B39D0DE
:1013A0004AE0FFF757FE03005A007B685B685B0862
:1013B000D2187B685B6819001000FEF7A5FE0300D9
:1013C0001A001423FB181A803BE07B685B685B08FB
:1013D000624A9A187B685B6819001000FEF794FE59
:1013E00003001A001423FB181A802AE0FFF7C8FD37
:1013F00003005A007B685B685B08D2187B685B68F7
:1014000019001000FEF780FE03001A001423FB18D9
:101410001A8016E07B685B685B08802252029A188B
:101420007B685B6819001000FEF76EFE03001A006F
:101430001423FB181A8004E01323FB1801221A70EE
:10144000C0460A23FB181422BA1812880F218A43B7
:101450001A801423FB181B885B109BB207221340D1
:1014600099B20A23FB180A22BA1812880A431A8072
:101470007B681B680A22BA181288DA605BE01723BF
:10148000FB181B78022B1BD002DC002B05D04DE093
:10149000042B26D0082B37D048E07B681C68FFF768
:1014A000D9FD02007B685B685B08D2187B685B68CB
:1014B00019001000FEF728FE03009BB2E3603AE03B
:1014C0007B681C687B685B685B08254A9A187B68A8
:1014D0005B6819001000FEF717FE03009BB2E36083
:1014E00029E07B681C68FFF74BFD02007B685B68A6
:1014F0005B08D2187B685B6819001000FEF704FED9
:1015000003009BB2E36016E07B681C687B685B6845
:101510005B08802212029A187B685B681900100031
:10152000FEF7F2FD03009BB2E36004E01323FB1817
:1015300001221A70C0461323FB181B781800BD4601
:1015400007B090BDF369FFFFFFCFFFFFFFF4FFFF80
:101550000038014000100240004400400024F40024
:1015600000127A0080B582B000AF78607B685B6A59
:10157000012213400AD07B681B687A68126852689F
:10158000454911407A68926A0A435A607B685B6AEF
:10159000022213400AD07B681B687A68126852687E
:1015A0003E4911407A68D26A0A435A607B685B6A96
:1015B000042213400AD07B681B687A68126852685C
:1015C000374911407A68126B0A435A607B685B6A3C
:1015D000082213400AD07B681B687A681268526838
:1015E000304911407A68526B0A435A607B685B6AE3
:1015F000102213400AD07B681B687A6812689268D0
:10160000294911407A68926B0A439A607B685B6A49
:10161000202213400AD07B681B687A68126892689F
:10162000224911407A68D26B0A439A607B685B6AF0
:10163000402213401BD07B681B687A68126852688E
:101640001B4911407A68126C0A435A607B681A6C15
:1016500080235B039A420AD17B681B687A68126810
:101660005268144911407A68526C0A435A607B6888
:101670005B6A802213400AD07B681B687A68126814
:1016800052680D4911407A68926C0A435A60C0460C
:10169000BD4602B080BDC046FFFFFDFFFFFFFEFF5D
:1016A000FFFFFBFFFF7FFFFFFFEFFFFFFFDFFFFFFE
:1016B000FFFFEFFFFFFF9FFFFFFFF7FF80B582B047
:1016C00000AF78607B680022DA667B68692220219F
:1016D00099547B686A22202199547B6868220021F2
:1016E000995400231800BD4602B080BD80B584B077
:1016F00000AFF860B9603B60FB1D1A702BE0BB695E
:10170000013328D0BB69002B07D0FEF7C5FD0200CE
:101710003B68D21ABB699A421DD9FB681B68FA68FC
:101720001268126816490A401A60FB681B68FA685A
:101730001268926801218A439A60FB68692220211D
:101740009954FB686A2220219954FB686822002181
:10175000995403230FE0FB681B68DB69BA681A40E1
:10176000BB68D31A5A425341DBB21A00FB1D1B78E7
:101770009A42C4D000231800BD4604B080BDC046C4
:101780005FFEFFFF80B584B000AF0200BB1D1A8072
:101790000023FB60BB1D00229B5E842B06D0BB1D7B
:1017A00000229A5EFB68D3180333FB60FB681800C5
:1017B000BD4604B080BD80B500AF00F003FD00233E
:1017C0001800BD4680BDF0B587B002AF78603960C3
:1017D0007B685C687B681D687B681B699EB27B6860
:1017E00008229B5E1800FFF7CDFF01003A680C232A
:1017F000FB1801930091130032002900200000F033
:1018000095FB0300012B01D0002300E0FB681800CA
:10181000BD4605B0F0BD80B584B000AF78607B6890
:10182000FB60FB68002B01D0FB6800E0012318007F
:1018300000F0A2FC00231800BD4604B080BD80B5B6
:1018400000AF00F057FF0300012B01D000F094F926
:10185000C046BD4680BD80B582B000AF78607B6871
:1018600008331A007B685A607B68012252429A60F2
:101870007B6808331A007B68DA607B6808331A00DB
:101880007B681A617B6800221A60C046BD4602B0C0
:1018900080BD80B582B000AF78607B6800221A619D
:1018A000C046BD4602B080BD80B584B000AF786050
:1018B00039607B685B68FB603B68FA685A60FB686C
:1018C0009A683B689A60FB689B683A685A60FB6854
:1018D0003A689A603B687A681A617B681B685A1C90
:1018E0007B681A60C046BD4604B080BD80B584B038
:1018F00000AF786039603B681B68BB60BB68013330
:1019000003D17B681B69FB600CE07B680833FB60DC
:1019100002E0FB685B68FB60FB685B681A68BB6899
:101920009A42F6D9FB685A683B685A603B685B6824
:101930003A689A603B68FA689A60FB683A685A604D
:101940003B687A681A617B681B685A1C7B681A605E
:10195000C046BD4604B080BD80B584B000AF78609D
:101960007B681B69FB607B685B687A6892689A6039
:101970007B689B687A6852685A60FB685A687B6823
:101980009A4203D17B689A68FB685A607B680022A0
:101990001A61FB681B685A1EFB681A60FB681B68AB
:1019A0001800BD4604B080BD80B584B000AFF860BB
:1019B000B9607A60FB68043BFB60FB6880225204DC
:1019C0001A60FB68043BFB60BA68FB681A60FB683E
:1019D000043BFB60084AFB681A60FB68143BFB6031
:1019E0007A68FB681A60FB68203BFB60FB681800A4
:1019F000BD4604B080BDC046FD19000880B500AFEB
:101A0000034B1B68013301D072B6FEE772B6FEE7E6
:101A10000000002080B500AFC046BD4680BD00007C
:101A20000B4A13681868203080F30988022080F37D
:101A30001488BFF36F8F3FBCAE4608BC04BC62B6CF
:101A40001847C046C046C046C046C046C046C0460D
:101A50003C0C0020C046C04680B500AF0D4B0D4A7F
:101A60001268FF2109040A431A600A4B094A1268E6
:101A7000FF2109060A431A6000F098F8064B00227D
:101A80001A60FFF7CDFFFFF7B9FF00231800BD462E
:101A900080BDC04620ED00E00000002080B500AF12
:101AA000054B802252051A60BFF34F8FBFF36F8F33
:101AB000C046BD4680BDC04604ED00E080B500AF25
:101AC00072B6064B1B685A1C044B1A60BFF34F8F4B
:101AD000BFF36F8FC046BD4680BDC04600000020EA
:101AE00080B500AF094B1B68002B01D172B6FEE731
:101AF000064B1B685A1E054B1A60044B1B68002BD3
:101B000000D162B6C046BD4680BDC0460000002080
:101B1000EFF3108072B670470023180080F310882E
:101B20007047C046000000000000000000000000F8
:101B3000EFF309800E4B1A6820381060F0C044465D
:101B40004D4656465F46F0C008B572B600F0BCFC84
:101B500062B60CBC116808681030F0C8A046A946EF
:101B6000B246BB4680F309882038F0C81847C04603
:101B70003C0C0020C046C04680B582B000AFFFF7E5
:101B8000C7FF03007B6000F0EBFB031E03D0064B96
:101B9000802252051A607B681800FFF7BFFFC0461D
:101BA000BD4602B080BDC04604ED00E0B0B500AF58
:101BB000084C094B1A68FA2399001000FEF7A4FAA2
:101BC0000300013B2360054B07221A60C046BD4657
:101BD000B0BDC04614E000E00400002010E000E0CA
:101BE00080B586B000AF78600023FB6000F020FB7A
:101BF000494B1B68002B01D100F0E0F8474B1B68F4
:101C00007A68134000D079E07B68002B12D008225C
:101C10007B689B187B607B68072213400AD07B6837
:101C20000722934308337B607B680722134001D06F
:101C300072B6FEE77B68002B60D0394B1B687A6870
:101C40009A425BD8374B3B61364B1B687B6104E0A3
:101C50007B693B617B691B687B617B695A687B6838
:101C60009A4203D27B691B68002BF1D12A4B1B6877
:101C70007A699A4242D03B691B6808229B18FB6034
:101C80007B691A683B691A607B695A687B68D21A5B
:101C900008235B009A4216D97A697B68D318BB6027
:101CA000BB680722134001D072B6FEE77B695A6811
:101CB0007B68D21ABB685A607B697A685A60BB68D5
:101CC000180000F0DBF8164B1A687B695B68D21AC3
:101CD000134B1A60124B1A68134B1B689A4203D2BB
:101CE0000F4B1A68104B1A607B695A680B4B1B68C4
:101CF0001A437B695A607B6900221A6000F0A4FADB
:101D0000FB680722134001D072B6FEE7FB6818009B
:101D1000BD4606B080BDC0462C0C0020380C00200B
:101D2000300C0020240C0020340C002080B584B03E
:101D300000AF78607B68FB607B68002B35D00823A0
:101D40005B42FA68D318FB60FB68BB60BB685A68EB
:101D5000184B1B68134001D172B6FEE7BB681B68C5
:101D6000002B01D072B6FEE7BB685A68114B1B68A6
:101D700013401AD0BB681B68002B16D1BB685A6889
:101D80000C4B1B68DB431A40BB685A6000F050FAEA
:101D9000BB685A68084B1B68D218074B1A60BB68AF
:101DA000180000F06BF800F04FFAC046BD4604B0D2
:101DB00080BDC046380C0020300C002080B584B0B7
:101DC00000AFC0231B01BB60264BFB60FB680722F2
:101DD00013400CD0FB680733FB60FB68072293437A
:101DE000FB60BA68FB68D21A1E4BD318BB60FB6855
:101DF0007B601D4B7A681A601B4B00225A607A6820
:101E0000BB68D318FB600822FB689B1AFB60FB6869
:101E100007229343FB60FA68144B1A60134B1B684C
:101E200000225A60114B1B6800221A607B683B60DD
:101E30003B68FA68D21A3B685A600C4B1A683B68D8
:101E40001A603B685A680A4B1A603B685A68094B2B
:101E50001A60094B802212061A60C046BD4604B0C3
:101E600080BDC04624000020240C00202C0C002043
:101E7000340C0020300C0020380C002080B584B0D9
:101E800000AF7860274BFB6002E0FB681B68FB60DB
:101E9000FB681A687B689A42F7D3FB68BB60FB68F3
:101EA0005B68BA68D2187B689A4208D1FB685A68A6
:101EB0007B685B68D218FB685A60FB687B607B6854
:101EC000BB607B685B68BA68D218FB681B689A4283
:101ED00018D1FB681A68144B1B689A420DD07B68B6
:101EE0005A68FB681B685B68D2187B685A60FB689D
:101EF0001B681A687B681A6008E00B4B1A687B68DD
:101F00001A6003E0FB681A687B681A60FA687B68ED
:101F10009A4202D0FB687A681A60C046BD4604B097
:101F200080BDC046240C00202C0C002090B58DB044
:101F300004AFF860B9603B60BB1D1A80BB1D1B88F5
:101F40009B001800FFF74CFE03007B617B69002BB0
:101F500010D05420FFF744FE0300FB61FB69002B07
:101F600003D0FB697A691A6306E07B691800FFF702
:101F7000DDFE01E00023FB61FB69002B16D0BB1DD9
:101F80001A883C68B968F86800230393FB690293D8
:101F90007B6B01933B6B0093230000F00FF8FB6910
:101FA000180000F085F80123BB6102E001235B42C9
:101FB000BB61BB691800BD4609B090BD80B586B055
:101FC00000AFF860B9607A603B60BB6A1A6B7B68EF
:101FD00036498C4663449B00D3183B613B6907221A
:101FE00093433B613B690722134001D072B6FEE781
:101FF00000237B6113E0BA687B69D3181878BA6A4A
:1020000034217B69D3185B18021C1A70BA687B698B
:10201000D3181B78002B06D07B6901337B617B6969
:102020000F2BE8D900E0C046BB6A43220021995437
:102030003B6A062B01D906233B62BB6A3A6ADA6225
:10204000BB6A3A6A5A64BB6A00229A64BB6A043368
:102050001800FFF71EFCBB6A18331800FFF719FCC5
:10206000BB6ABA6A1A613B6A0722D21ABB6A9A61D2
:10207000BB6ABA6A5A62BB6A0022DA64BB6A50223F
:10208000002199543A68F9683B691800FFF78CFC05
:102090000200BB6A1A607B6A002B02D07B6ABA6AB4
:1020A0001A60C046BD4606B080BDC046FFFFFF3F78
:1020B00080B582B000AF7860FFF700FD284B1B6849
:1020C0005A1C274B1A60274B1B68002B09D1254B44
:1020D0007A681A60224B1B68012B10D100F056FA67
:1020E0000DE0214B1B68002B09D11E4B1B68DA6ADF
:1020F0007B68DB6A9A4202D81A4B7A681A601B4BDB
:102100001B685A1C194B1A607B68DA6A184B1B68EB
:102110009A4203D97B68DA6A154B1A607B68DA6ADF
:1021200013009B009B189B00124A9A187B6804338B
:1021300019001000FFF7B8FBFFF7D2FC0A4B1B6831
:10214000002B08D0074B1B68DA6A7B68DB6A9A426F
:1021500001D2FFF7A3FCC046BD4602B080BDC04619
:102160003C0D00203C0C0020480D0020580D0020A4
:10217000440D0020400C002080B584B000AF786092
:102180000023FB607B68002B10D00D4B1B68002BDD
:1021900001D072B6FEE700F04BF87B680021180012
:1021A00000F0C4FA00F050F80300FB60FB68002B5D
:1021B00001D1FFF773FCC046BD4604B080BDC046E8
:1021C000640D002080B584B002AF13491348144B4E
:1021D00001930023009300238022FFF7A7FE030052
:1021E0007B607B68012B0DD172B60E4B01225242EF
:1021F0001A600D4B01221A600C4B00221A60FFF787
:102200002BFC04E07B68013301D172B6FEE7C046C7
:10221000BD4602B080BDC046CC2C00086D2500082C
:10222000600D00205C0D0020480D0020400D0020B6
:1022300080B500AF034B1B685A1C024B1A60C046A6
:10224000BD4680BD640D002080B584B000AF002382
:10225000FB600023BB603A4B1B68002B01D172B6B8
:10226000FEE7FFF72BFC364B1B685A1E344B1A60F7
:10227000334B1B68002B5BD1324B1B68002B57D0B4
:102280002FE0314BDB68DB68FB60FB68183318001C
:10229000FFF762FBFB6804331800FFF75DFBFB6888
:1022A000DA6A2A4B1B689A4203D9FB68DA6A274B21
:1022B0001A60FB68DA6A13009B009B189B00244A93
:1022C0009A18FB68043319001000FFF7EDFAFB6859
:1022D000DA6A204B1B68DB6A9A4202D31E4B01224A
:1022E0001A60194B1B68002BCBD1FB68002B01D067
:1022F00000F0DCF9194B1B687B607B68002B0FD06A
:1023000000F02EF8031E02D0134B01221A607B68E6
:10231000013B7B607B68002BF2D1104B00221A60DE
:102320000D4B1B68002B03D00123BB60FFF7B6FBEE
:10233000FFF7D6FBBB681800BD4604B080BDC046A1
:10234000640D00203C0D0020FC0C0020440D0020FA
:10235000400C00203C0C0020500D00204C0D0020B3
:1023600080B586B000AF00237B614C4B1B68002B0F
:1023700000D083E04A4B1B6801333B61484B3A690C
:102380001A603B69002B17D1464B1B681B68002B5A
:1023900001D072B6FEE7434B1B68FB60424B1A68E4
:1023A000404B1A60404BFA681A60404B1B685A1C3D
:1023B0003E4B1A6000F07AF93D4B1B683A699A422D
:1023C0004ED3384B1B681B68002B01D1012300E062
:1023D0000023002B04D0364B012252421A603FE00A
:1023E000304B1B68DB68DB68BB60BB685B687B608D
:1023F0003A697B689A4203D22D4B7A681A602FE0C3
:10240000BB6804331800FFF7A7FABB689B6A002B70
:1024100004D0BB6818331800FFF79EFABB68DA6A6D
:10242000244B1B689A4203D9BB68DA6A214B1A60B5
:10243000BB68DA6A13009B009B189B001E4A9A181F
:10244000BB68043319001000FFF72EFABB68DA6A84
:102450001A4B1B68DB6A9A42B3D301237B61B0E756
:10246000164B1B68DA6A144913009B009B189B00EB
:102470005B58012B07D901237B6104E0104B1B68DB
:102480005A1C0F4B1A600F4B1B68002B01D0012305
:102490007B617B691800BD4606B080BD640D0020DD
:1024A000400D0020F40C0020F80C0020540D0020FA
:1024B0005C0D0020440D0020400C00203C0C00204E
:1024C0004C0D0020500D002080B582B000AF224B93
:1024D0001B68002B03D0214B01221A6037E01F4BF1
:1024E00000221A601E4B1B687B6007E07B68002B94
:1024F00001D172B6FEE77B68013B7B6019497A68BF
:1025000013009B009B189B005B58002BEED07A6851
:1025100013009B009B189B00124A9B183B603B6872
:102520005B685A683B685A603B685A683B68083386
:102530009A4204D13B685B685A683B685A603B68C2
:102540005B68DA68084B1A60054B7A681A60C04607
:10255000BD4602B080BDC046640D0020500D002075
:10256000440D0020400C00203C0C002080B582B0BF
:1025700000AF786000F04EF8034B1B68012BF9D9CF
:10258000FFF78CFAF6E7C046400C002080B582B019
:1025900000AF00237B600CE07A6813009B009B185F
:1025A0009B00144A9B181800FFF755F97B6801330C
:1025B0007B607B68062BEFD90F4B1800FFF74BF9B8
:1025C0000E4B1800FFF747F90D4B1800FFF743F9C2
:1025D0000C4B1800FFF73FF90B4B1800FFF73BF9C6
:1025E0000A4B054A1A600A4B044A1A60C046BD46A7
:1025F00002B080BD400C0020CC0C0020E00C00207C
:10260000FC0C0020100D0020280D0020F40C0020F0
:10261000F80C002080B582B000AF27E0FFF708FE7D
:10262000164B1B685A425341DBB27B60FFF70CFE2E
:102630007B68002B1AD1FFF741FA104BDB68DB688F
:102640003B603B6804331800FFF786F90C4B1B68AE
:102650005A1E0B4B1A600B4B1B685A1E094B1A6013
:10266000FFF73EFA3B68180000F00EF8054B1B68B8
:10267000002BD3D1C046BD4602B080BD100D002056
:102680003C0D0020240D002080B582B000AF7860A2
:102690007B681B6B1800FFF749FB7B681800FFF78E
:1026A00045FBC046BD4602B080BD000080B582B08B
:1026B00000AF0E4B1B681B68002B01D1012300E00B
:1026C0000023002B04D00A4B012252421A6008E07A
:1026D000064B1B68DB68DB687B607B685A68044BD1
:1026E0001A60C046BD4602B080BDC046F40C002052
:1026F0005C0D002080B582B000AF0A4B1B68002B38
:1027000002D101237B6008E0074B1B68002B02D13C
:1027100002237B6001E000237B607B681800BD46DC
:1027200002B080BD480D0020640D002080B584B04B
:1027300000AF78603960214B1B68FB60204B1B6841
:1027400004331800FFF708F97B6801330BD13B68AD
:10275000002B08D01A4B1B681A1D1A4B11001800C9
:10276000FFF7A2F826E0FA687B68D318BB60144B29
:102770001B68BA685A60BA68FB689A4209D2124B61
:102780001A680F4B1B68043319001000FFF7AEF8EE
:1027900010E00E4B1A680A4B1B6804331900100036
:1027A000FFF7A4F80A4B1B68BA689A4202D2084B9A
:1027B000BA681A60C046BD4604B080BD400D002016
:1027C0003C0C0020280D0020F80C0020F40C002008
:1027D0005C0D002090B587B000AFFDF721FD00F043
:1027E00019F800F0ADF800F075F83B1D074A13CA60
:1027F00013C303CA03C33B1D00211800FEF7E3FF08
:102800000200034B1A60FEF7D6FFFEE7E02C00083B
:102810006C0D002080B590B000AF1023FB18022291
:102820001A601023FB180122DA601023FB18102213
:102830001A611023FB1802221A621023FB180022CF
:102840005A621023FB18A02292039A621023FB18ED
:102850000022DA621023FB181800FDF7B7FF031EF1
:1028600004D01B4BB721180000F0FEF83B000722F4
:102870001A603B0002225A603B0000229A603B0033
:102880000022DA603B0001211800FEF793FA031ED4
:1028900004D00F4BC421180000F0E6F8FEF7D0FB7F
:1028A0000200FA2399001000FDF72EFC0300180027
:1028B000FDF7A4FD0420FDF7AFFD01235B420022DC
:1028C00003211800FDF784FDC046BD4610B080BD51
:1028D000F42C000880B500AF164B174A1A60154B50
:1028E000E12252025A60134B00229A60114B0022DF
:1028F000DA60104B00221A610E4B0C225A610D4B0C
:1029000000229A610B4B0022DA610A4B00221A6204
:10291000084B00225A62074B1800FEF7B1FB031E5A
:1029200004D0064BE321180000F09EF8C046BD46D7
:1029300080BDC046700D002000440040F42C00080B
:1029400080B588B000AF304B2F4A5269802109030F
:102950000A435A612C4B5A6980231B031340BB6006
:10296000BB68294B284A52698021C9030A435A612E
:10297000254B5A698023DB0313407B607B68224B25
:10298000214A5269802189020A435A611E4B5A69C1
:1029900080239B0213403B603B689023DB050022B1
:1029A00020211800FDF7E3FE0C23FB188022920182
:1029B0001A600C23FB18154A5A600C23FB180022DE
:1029C0009A600C23FB18124A19001000FDF73EFD17
:1029D0000C23FB1820221A600C23FB1801225A60DA
:1029E0000C23FB1800229A600C23FB180022DA60EB
:1029F0000C23FA189023DB0511001800FDF726FDC3
:102A0000C046BD4608B080BD001002400000211045
:102A10000008004880B582B000AF786080239B0139
:102A20000E4A19001000FDF785FE031E11D19023F8
:102A3000DB0520211800FDF7B7FEFA239B000849AB
:102A400008481222FEF774FBC8235B001800FEF74B
:102A5000E2FE6420FEF7DFFEE0E7C0460008004823
:102A6000042D0008700D002080B582B000AF7860A2
:102A70003960FEE780B582B000AF194B184A926901
:102A800001210A439A61164B9B69012213407B6026
:102A90007B68134B124AD269802149050A43DA61E7
:102AA0000F4BDA6980235B0513403B603B680523CD
:102AB0005B42002200211800FDF78AFC02235B42E2
:102AC000002203211800FDF783FC01235B42002252
:102AD00003211800FDF77CFCC046BD4602B080BD56
:102AE0000010024080B588B000AF78607B681B683A
:102AF000184A934229D1184B174AD269802189027A
:102B00000A43DA61144BDA6980239B021340BB60ED
:102B1000BB680C23FB180C221A600C23FB18022242
:102B20005A600C23FB1800229A600C23FB18002229
:102B3000DA600C23FB1801221A610C23FA18902387
:102B4000DB0511001800FDF781FCC046BD4608B04A
:102B500080BDC046004400400010024080B500AF78
:102B6000FDF78EFBFEF76BFEC046BD4680BD000044
:102B700080B500AF1A4B1A4A126801210A431A6045
:102B8000174B174A526817490A405A60144B144AA7
:102B9000126815490A401A60114B114A126813490C
:102BA0000A401A600E4B0E4A526811490A405A6098
:102BB0000B4B0B4AD26A0F218A43DA62084B084A50
:102BC000126B0C490A401A63054B054A526B0121EE
:102BD0008A435A63024B00229A60C046BD4680BDBC
:102BE000001002400CB8FF08FFFFF6FEFFFFFBFFDE
:102BF000FFFFC0FFECFEFFFF0D4885460D480E4964
:102C00000E4A002302E0D458C4500433C4188C4246
:102C1000F9D30B4A0B4C002301E013600432A242AB
:102C2000FBD3FFF7A5FF00F011F8FFF7D3FDFEE798
:102C3000002000200000002008000020382D00089F
:102C400008000020E00D0020FEE7000070B500261F
:102C50000C4D0D4C641BA410A64209D1002600F0B7
:102C600019F80A4D0A4C641BA410A64205D170BD88
:102C7000B300EB5898470136EEE7B300EB5898479E
:102C80000136F2E7302D0008302D0008302D000805
:102C9000342D0008F8B5C046F8BC08BC9E46704705
:0C2CA000F8B5C046F8BC08BC9E46704762
:102CAC0002030405060708090A0B0C0D0E0F101081
:102CBC000102030405060708090A0B0C0D0E0F1080
:102CCC0049444C450000000064656661756C7454A1
:102CDC0061736B00D42C0008152A0008000000005A
:102CEC0000000000800000002E2E5C5372635C6DAF
:102CFC0061696E2E63000000425554544F4E2050B3
:102D0C005245535345440D0A0000000000000000DA
:102D1C00000000000102030406070809000000007F
:042D2C000102030499
:042D3000E9000008AE
:042D3400C1000008D2
:082D3800AAAAAAAA00127A005F
:0400000508002BF9CB
:00000001FF
